:020000040000FA
:020000002028B6
:100008007E1480314E01961E0A280B2813288C1E58
:100018000E280F28132881314A2180311E28161CEA
:10002800162817281E280C1C1A281B281E2882315F
:10003800932280317E10090021288231BA22803132
:10004800FD00DC30840081308500203086000030DF
:1000580087001130823181228031B101B201B301B0
:10006800B401B5017E1040018928F3004301901ABC
:100078003E283F2887287308F000F101F035F10D7C
:10008800F035F10D7230700784008230713D8500C3
:1000980000088F007308F000F101F035F10DF0351C
:1000A800F10D7130700784008230713D85000008C1
:1000B800900091017308F000F101F035F10DF03571
:1000C800F10D7330700784008230713D850000089F
:1000D8008D007308F000F101F035F10DF035F10DE8
:1000E8007430700784008230713D85000008F2008A
:1000F800F20D400112087206FD39720692004301A2
:10010800901601308828003008008131ED218031B7
:100118008231AE2280314001181598129B3000328E
:10012800890B93284001200803199B289C28A7289D
:10013800A001981281310C2180318231182280313E
:100148008B17FD016300400135080319AC28AD2861
:10015800B228B501981681312B21803140010C1E3F
:10016800B628B728962882310B2280319628202875
:100178007008F3007308F400D92874088600870112
:10018800010843018C004E010F1CCB28CC28C7283E
:100198000F1043010C08F3007408860087017308E8
:1001A80081000130F3007308F4070130F1020030D8
:1001B800F23B710A031DE428720A031DE428E528AE
:1001C800C1280800F9007908F8007808FA007708CB
:1001D800F8007808FB00003081319C218031003A1A
:1001E800031DF728F828F9280B29400118117A303F
:1001F800F8007808F0000230F1000030F200803199
:10020800BC208031400118158231AB2280310800B2
:100218004F30FC007C08F70020308031E620813127
:100228000A30FC007C08F70025308031E620813157
:100238007F30FC007C08F7003E308031E6208131B9
:10024800F701F70A3F308031E620813108004F304E
:10025800FC007C08F70020308031E62081310A302C
:10026800FC007C08F70025308031E620813103301E
:10027800FC007C08F7003E308031E6208131F70130
:10028800F70A3F308031E620813108004E018C1298
:10029800400139084B019D00400138084B019C0082
:1002A80001304001B1070030B23D003032023C302D
:1002B80003193102031C6129622968298231252228
:1002C80081314001B101B201080043304B019F0068
:1002D800FC309D0037309C001D084001B9004B01DF
:1002E8001C084001B8004E018C1296164C30F000E4
:1002F8000230F10082318722813190304B019E001B
:10030800080040019801103092007E01B801B9013F
:10031800BA013730BB003F30BC0004307D0190008B
:100328000130C50015307E0191001630900008009C
:10033800F600A42982319E228131B1290030B129E9
:100348007608F400F5017508003A0319AC29A229CA
:100358007408003A03199E29A229080001307D017A
:10036800C5001130C60015307E019100163090008E
:10037800403043018F002030900004308D00400150
:100388009210430190120800AB3402349E340234B8
:1003980000340034BC3400340034003400340034F9
:1003A80000340034003400340034003400340034A5
:1003B80001346434613474346134003400340034FA
:1003C8000034003400340034003400340034003485
:1003D80000348231792281318131B22181318131F8
:1003E80085218131823156228131813169218131E2
:1003F80008007D08031D012A022A072A4001B501C9
:10040800B50AFD01FD0A82313F228131080082319F
:10041800AE2282318231A322823182315F2282313F
:100428008231B122823108004E010C100B14FD30CC
:10043800F0000130F10082318D2282314E01161414
:10044800080040013608370403192B2A2C2A312AC0
:1004580037088A0036080A0082310800400133084C
:1004680034040319382A392A3E2A34088A00330802
:100478000A00823108008231B42282318231A722F7
:1004880082318231682282318231B722823108007A
:100498008231B42282318231682282314001A00146
:1004A800A00A0800503051018D008F01910193017D
:1004B800900192010800400139084B019D0040015C
:1004C80038084B019C000800400139084B019D0089
:1004D800400138084B019C0008000A3440340134BC
:1004E800003420344034043400344F01960197011D
:1004F800980199019A019B010800FE0012001E0054
:10050800FE0B822A003471084001B7007008B6005B
:10051800080071084001B4007008B30008004E01DB
:100528000C10823132228231080064346134743410
:1005380061340034003080313920823108004001B4
:10054800B101B20108004001B101B2010800430144
:10055800901208004B019E1308004B019E170800DB
:0E0568004B019E1308004B019E170800013442
:020000040001F9
:0A000E00DC17DD379F07FF1DFE3FE2
:00000001FF
